{
  "contractName": "Vote",
  "abi": [
    {
      "anonymous": false,
      "inputs": [
        {
          "indexed": true,
          "internalType": "address",
          "name": "previousOwner",
          "type": "address"
        },
        {
          "indexed": true,
          "internalType": "address",
          "name": "newOwner",
          "type": "address"
        }
      ],
      "name": "OwnershipTransferred",
      "type": "event"
    },
    {
      "anonymous": false,
      "inputs": [
        {
          "indexed": false,
          "internalType": "uint256",
          "name": "proposalId",
          "type": "uint256"
        }
      ],
      "name": "ProposalRegistered",
      "type": "event"
    },
    {
      "anonymous": false,
      "inputs": [],
      "name": "ProposalsRegistrationEnded",
      "type": "event"
    },
    {
      "anonymous": false,
      "inputs": [],
      "name": "ProposalsRegistrationStarted",
      "type": "event"
    },
    {
      "anonymous": false,
      "inputs": [
        {
          "indexed": false,
          "internalType": "address",
          "name": "voter",
          "type": "address"
        },
        {
          "indexed": false,
          "internalType": "uint256",
          "name": "proposalId",
          "type": "uint256"
        }
      ],
      "name": "Voted",
      "type": "event"
    },
    {
      "anonymous": false,
      "inputs": [
        {
          "indexed": false,
          "internalType": "address",
          "name": "voterAddress",
          "type": "address"
        }
      ],
      "name": "VoterRegistered",
      "type": "event"
    },
    {
      "anonymous": false,
      "inputs": [],
      "name": "VotesTallied",
      "type": "event"
    },
    {
      "anonymous": false,
      "inputs": [],
      "name": "VotingSessionEnded",
      "type": "event"
    },
    {
      "anonymous": false,
      "inputs": [],
      "name": "VotingSessionStarted",
      "type": "event"
    },
    {
      "anonymous": false,
      "inputs": [
        {
          "indexed": false,
          "internalType": "enum Vote.WorkflowStatus",
          "name": "previousStatus",
          "type": "uint8"
        },
        {
          "indexed": false,
          "internalType": "enum Vote.WorkflowStatus",
          "name": "newStatus",
          "type": "uint8"
        }
      ],
      "name": "WorkflowStatusChange",
      "type": "event"
    },
    {
      "inputs": [],
      "name": "owner",
      "outputs": [
        {
          "internalType": "address",
          "name": "",
          "type": "address"
        }
      ],
      "stateMutability": "view",
      "type": "function",
      "constant": true
    },
    {
      "inputs": [
        {
          "internalType": "uint256",
          "name": "",
          "type": "uint256"
        }
      ],
      "name": "proposals",
      "outputs": [
        {
          "internalType": "string",
          "name": "description",
          "type": "string"
        },
        {
          "internalType": "uint256",
          "name": "voteCount",
          "type": "uint256"
        }
      ],
      "stateMutability": "view",
      "type": "function",
      "constant": true
    },
    {
      "inputs": [],
      "name": "renounceOwnership",
      "outputs": [],
      "stateMutability": "nonpayable",
      "type": "function"
    },
    {
      "inputs": [],
      "name": "status",
      "outputs": [
        {
          "internalType": "enum Vote.WorkflowStatus",
          "name": "",
          "type": "uint8"
        }
      ],
      "stateMutability": "view",
      "type": "function",
      "constant": true
    },
    {
      "inputs": [
        {
          "internalType": "address",
          "name": "newOwner",
          "type": "address"
        }
      ],
      "name": "transferOwnership",
      "outputs": [],
      "stateMutability": "nonpayable",
      "type": "function"
    },
    {
      "inputs": [
        {
          "internalType": "address",
          "name": "",
          "type": "address"
        }
      ],
      "name": "whiteList",
      "outputs": [
        {
          "internalType": "bool",
          "name": "isRegistered",
          "type": "bool"
        },
        {
          "internalType": "bool",
          "name": "hasVoted",
          "type": "bool"
        },
        {
          "internalType": "uint256",
          "name": "votedProposalId",
          "type": "uint256"
        }
      ],
      "stateMutability": "view",
      "type": "function",
      "constant": true
    },
    {
      "inputs": [
        {
          "internalType": "address",
          "name": "_address",
          "type": "address"
        }
      ],
      "name": "registration",
      "outputs": [],
      "stateMutability": "nonpayable",
      "type": "function"
    },
    {
      "inputs": [],
      "name": "openProposalRegistration",
      "outputs": [],
      "stateMutability": "nonpayable",
      "type": "function"
    },
    {
      "inputs": [
        {
          "internalType": "string",
          "name": "_proposalDescription",
          "type": "string"
        }
      ],
      "name": "saveProposal",
      "outputs": [],
      "stateMutability": "nonpayable",
      "type": "function"
    },
    {
      "inputs": [],
      "name": "closeProposalRegistration",
      "outputs": [],
      "stateMutability": "nonpayable",
      "type": "function"
    },
    {
      "inputs": [],
      "name": "openVoteSession",
      "outputs": [],
      "stateMutability": "nonpayable",
      "type": "function"
    },
    {
      "inputs": [
        {
          "internalType": "uint256",
          "name": "_proposalId",
          "type": "uint256"
        }
      ],
      "name": "vote",
      "outputs": [],
      "stateMutability": "nonpayable",
      "type": "function"
    },
    {
      "inputs": [],
      "name": "endVoteSession",
      "outputs": [],
      "stateMutability": "nonpayable",
      "type": "function"
    },
    {
      "inputs": [],
      "name": "countVotes",
      "outputs": [
        {
          "internalType": "uint256",
          "name": "",
          "type": "uint256"
        }
      ],
      "stateMutability": "nonpayable",
      "type": "function"
    }
  ],
  "bytecode": "0x608060405234801561001057600080fd5b5060006100216100c460201b60201c565b9050806000806101000a81548173ffffffffffffffffffffffffffffffffffffffff021916908373ffffffffffffffffffffffffffffffffffffffff1602179055508073ffffffffffffffffffffffffffffffffffffffff16600073ffffffffffffffffffffffffffffffffffffffff167f8be0079c531659141344cd1fd0a4f28419497f9722a3daafe3b4186f6b6457e060405160405180910390a3506100cc565b600033905090565b611af5806100db6000396000f3fe608060405234801561001057600080fd5b50600436106100ea5760003560e01c80637aefac7b1161008c578063b2c6348711610066578063b2c63487146103cc578063b647990a146103d6578063f2fde38b146103f4578063f74c168d14610438576100ea565b80637aefac7b146102bd5780638da5cb5b14610378578063ab014bda146103c2576100ea565b80630840605a116100c85780630840605a146101d5578063200d2ed214610219578063372c12b114610245578063715018a6146102b3576100ea565b80630121b93f146100ef578063013cf08b1461011d57806307fa315f146101cb575b600080fd5b61011b6004803603602081101561010557600080fd5b8101908080359060200190929190505050610442565b005b6101496004803603602081101561013357600080fd5b81019080803590602001909291905050506105ca565b6040518080602001838152602001828103825284818151815260200191508051906020019080838360005b8381101561018f578082015181840152602081019050610174565b50505050905090810190601f1680156101bc5780820380516001836020036101000a031916815260200191505b50935050505060405180910390f35b6101d3610693565b005b610217600480360360208110156101eb57600080fd5b81019080803573ffffffffffffffffffffffffffffffffffffffff16906020019092919050505061087d565b005b610221610b53565b6040518082600581111561023157fe5b60ff16815260200191505060405180910390f35b6102876004803603602081101561025b57600080fd5b81019080803573ffffffffffffffffffffffffffffffffffffffff169060200190929190505050610b66565b604051808415151515815260200183151515158152602001828152602001935050505060405180910390f35b6102bb610baa565b005b610376600480360360208110156102d357600080fd5b81019080803590602001906401000000008111156102f057600080fd5b82018360208201111561030257600080fd5b8035906020019184600183028401116401000000008311171561032457600080fd5b91908080601f016020809104026020016040519081016040528093929190818152602001838380828437600081840152601f19601f820116905080830192505050505050509192919290505050610d32565b005b6103806110d1565b604051808273ffffffffffffffffffffffffffffffffffffffff1673ffffffffffffffffffffffffffffffffffffffff16815260200191505060405180910390f35b6103ca6110fa565b005b6103d46112e4565b005b6103de6114ce565b6040518082815260200191505060405180910390f35b6104366004803603602081101561040a57600080fd5b81019080803573ffffffffffffffffffffffffffffffffffffffff169060200190929190505050611602565b005b61044061180f565b005b6003600581111561044f57fe5b600460009054906101000a900460ff16600581111561046a57fe5b1461047457600080fd5b60001515600160003373ffffffffffffffffffffffffffffffffffffffff1673ffffffffffffffffffffffffffffffffffffffff16815260200190815260200160002060000160019054906101000a900460ff161515146104d457600080fd5b600281815481106104e157fe5b9060005260206000209060020201600101600081548092919060010191905055507f4d99b957a2bc29a30ebd96a7be8e68fe50a3c701db28a91436490b7d53870ca43382604051808373ffffffffffffffffffffffffffffffffffffffff1673ffffffffffffffffffffffffffffffffffffffff1681526020018281526020019250505060405180910390a160018060003373ffffffffffffffffffffffffffffffffffffffff1673ffffffffffffffffffffffffffffffffffffffff16815260200190815260200160002060000160016101000a81548160ff02191690831515021790555050565b600281815481106105d757fe5b9060005260206000209060020201600091509050806000018054600181600116156101000203166002900480601f0160208091040260200160405190810160405280929190818152602001828054600181600116156101000203166002900480156106835780601f1061065857610100808354040283529160200191610683565b820191906000526020600020905b81548152906001019060200180831161066657829003601f168201915b5050505050908060010154905082565b61069b61195b565b73ffffffffffffffffffffffffffffffffffffffff166000809054906101000a900473ffffffffffffffffffffffffffffffffffffffff1673ffffffffffffffffffffffffffffffffffffffff161461075c576040517f08c379a00000000000000000000000000000000000000000000000000000000081526004018080602001828103825260208152602001807f4f776e61626c653a2063616c6c6572206973206e6f7420746865206f776e657281525060200191505060405180910390fd5b6001600581111561076957fe5b600460009054906101000a900460ff16600581111561078457fe5b1461078e57600080fd5b6002600460006101000a81548160ff021916908360058111156107ad57fe5b02179055507f240cb87b2e4df4c318e72bd714d45a9cad60249e883ff56b1fffd83a4595a8fa60405160405180910390a17f0a97a4ee45751e2abf3e4fc8946939630b11b371ea8ae39ccdc3056e98f5cc3f600460019054906101000a900460ff16600460009054906101000a900460ff166040518083600581111561082f57fe5b60ff16815260200182600581111561084357fe5b60ff1681526020019250505060405180910390a16002600460016101000a81548160ff0219169083600581111561087657fe5b0217905550565b61088561195b565b73ffffffffffffffffffffffffffffffffffffffff166000809054906101000a900473ffffffffffffffffffffffffffffffffffffffff1673ffffffffffffffffffffffffffffffffffffffff1614610946576040517f08c379a00000000000000000000000000000000000000000000000000000000081526004018080602001828103825260208152602001807f4f776e61626c653a2063616c6c6572206973206e6f7420746865206f776e657281525060200191505060405180910390fd5b60001515600160008373ffffffffffffffffffffffffffffffffffffffff1673ffffffffffffffffffffffffffffffffffffffff16815260200190815260200160002060000160009054906101000a900460ff16151514610a0f576040517f08c379a00000000000000000000000000000000000000000000000000000000081526004018080602001828103825260118152602001807f416c72656164792072656769737472656400000000000000000000000000000081525060200191505060405180910390fd5b610a17611963565b60405180606001604052806001151581526020016000151581526020016000815250905080600160008473ffffffffffffffffffffffffffffffffffffffff1673ffffffffffffffffffffffffffffffffffffffff16815260200190815260200160002060008201518160000160006101000a81548160ff02191690831515021790555060208201518160000160016101000a81548160ff021916908315150217905550604082015181600101559050506000600460006101000a81548160ff02191690836005811115610ae757fe5b02179055507fb6be2187d059cc2a55fe29e0e503b566e1e0f8c8780096e185429350acffd3dd82604051808273ffffffffffffffffffffffffffffffffffffffff1673ffffffffffffffffffffffffffffffffffffffff16815260200191505060405180910390a15050565b600460009054906101000a900460ff1681565b60016020528060005260406000206000915090508060000160009054906101000a900460ff16908060000160019054906101000a900460ff16908060010154905083565b610bb261195b565b73ffffffffffffffffffffffffffffffffffffffff166000809054906101000a900473ffffffffffffffffffffffffffffffffffffffff1673ffffffffffffffffffffffffffffffffffffffff1614610c73576040517f08c379a00000000000000000000000000000000000000000000000000000000081526004018080602001828103825260208152602001807f4f776e61626c653a2063616c6c6572206973206e6f7420746865206f776e657281525060200191505060405180910390fd5b600073ffffffffffffffffffffffffffffffffffffffff166000809054906101000a900473ffffffffffffffffffffffffffffffffffffffff1673ffffffffffffffffffffffffffffffffffffffff167f8be0079c531659141344cd1fd0a4f28419497f9722a3daafe3b4186f6b6457e060405160405180910390a360008060006101000a81548173ffffffffffffffffffffffffffffffffffffffff021916908373ffffffffffffffffffffffffffffffffffffffff160217905550565b60016005811115610d3f57fe5b600460009054906101000a900460ff166005811115610d5a57fe5b14610db0576040517f08c379a0000000000000000000000000000000000000000000000000000000008152600401808060200182810382526028815260200180611a986028913960400191505060405180910390fd5b60026005811115610dbd57fe5b600460009054906101000a900460ff166005811115610dd857fe5b1415610de357600080fd5b60011515600160003373ffffffffffffffffffffffffffffffffffffffff1673ffffffffffffffffffffffffffffffffffffffff16815260200190815260200160002060000160009054906101000a900460ff16151514610e8f576040517f08c379a000000000000000000000000000000000000000000000000000000000815260040180806020018281038252602a815260200180611a48602a913960400191505060405180910390fd5b6000600160003373ffffffffffffffffffffffffffffffffffffffff1673ffffffffffffffffffffffffffffffffffffffff16815260200190815260200160002060000160016101000a81548160ff0219169083151502179055610f5b576040517f08c379a00000000000000000000000000000000000000000000000000000000081526004018080602001828103825260168152602001807f596f75206861766520616c726561647920766f7465640000000000000000000081525060200191505060405180910390fd5b610f63611988565b60405180604001604052808381526020016000815250905060028190806001815401808255809150506001900390600052602060002090600202016000909190919091506000820151816000019080519060200190610fc39291906119a2565b506020820151816001015550506001600460006101000a81548160ff02191690836005811115610fef57fe5b02179055507f92e393e9b54e2f801d3ea4beb0c5e71a21cc34a5d34b77d0fb8a3aa1650dc18f6002805490506040518082815260200191505060405180910390a17f0a97a4ee45751e2abf3e4fc8946939630b11b371ea8ae39ccdc3056e98f5cc3f600460019054906101000a900460ff16600460009054906101000a900460ff166040518083600581111561108157fe5b60ff16815260200182600581111561109557fe5b60ff1681526020019250505060405180910390a16001600460016101000a81548160ff021916908360058111156110c857fe5b02179055505050565b60008060009054906101000a900473ffffffffffffffffffffffffffffffffffffffff16905090565b61110261195b565b73ffffffffffffffffffffffffffffffffffffffff166000809054906101000a900473ffffffffffffffffffffffffffffffffffffffff1673ffffffffffffffffffffffffffffffffffffffff16146111c3576040517f08c379a00000000000000000000000000000000000000000000000000000000081526004018080602001828103825260208152602001807f4f776e61626c653a2063616c6c6572206973206e6f7420746865206f776e657281525060200191505060405180910390fd5b600260058111156111d057fe5b600460009054906101000a900460ff1660058111156111eb57fe5b146111f557600080fd5b6003600460006101000a81548160ff0219169083600581111561121457fe5b02179055507f1b8e19a458c1bcd88553332c518cc5c4e2d5793e712ee766d4f1c14f672ef1f560405160405180910390a17f0a97a4ee45751e2abf3e4fc8946939630b11b371ea8ae39ccdc3056e98f5cc3f600460019054906101000a900460ff16600460009054906101000a900460ff166040518083600581111561129657fe5b60ff1681526020018260058111156112aa57fe5b60ff1681526020019250505060405180910390a16003600460016101000a81548160ff021916908360058111156112dd57fe5b0217905550565b6112ec61195b565b73ffffffffffffffffffffffffffffffffffffffff166000809054906101000a900473ffffffffffffffffffffffffffffffffffffffff1673ffffffffffffffffffffffffffffffffffffffff16146113ad576040517f08c379a00000000000000000000000000000000000000000000000000000000081526004018080602001828103825260208152602001807f4f776e61626c653a2063616c6c6572206973206e6f7420746865206f776e657281525060200191505060405180910390fd5b600060058111156113ba57fe5b600460009054906101000a900460ff1660058111156113d557fe5b146113df57600080fd5b6001600460006101000a81548160ff021916908360058111156113fe57fe5b02179055507f344c25562921d075a298d34b6dd1fd00d36ff293974539dfd4a8c625d9f0064c60405160405180910390a17f0a97a4ee45751e2abf3e4fc8946939630b11b371ea8ae39ccdc3056e98f5cc3f600460019054906101000a900460ff16600460009054906101000a900460ff166040518083600581111561148057fe5b60ff16815260200182600581111561149457fe5b60ff1681526020019250505060405180910390a16001600460016101000a81548160ff021916908360058111156114c757fe5b0217905550565b60006114d861195b565b73ffffffffffffffffffffffffffffffffffffffff166000809054906101000a900473ffffffffffffffffffffffffffffffffffffffff1673ffffffffffffffffffffffffffffffffffffffff1614611599576040517f08c379a00000000000000000000000000000000000000000000000000000000081526004018080602001828103825260208152602001807f4f776e61626c653a2063616c6c6572206973206e6f7420746865206f776e657281525060200191505060405180910390fd5b600460058111156115a657fe5b600460009054906101000a900460ff1660058111156115c157fe5b146115cb57600080fd5b7f0e5e95ff8725ab3e7a4b6b59998a4c344c2aa8d1485f5e60cb7f337768e6134760405160405180910390a1600280549050905090565b61160a61195b565b73ffffffffffffffffffffffffffffffffffffffff166000809054906101000a900473ffffffffffffffffffffffffffffffffffffffff1673ffffffffffffffffffffffffffffffffffffffff16146116cb576040517f08c379a00000000000000000000000000000000000000000000000000000000081526004018080602001828103825260208152602001807f4f776e61626c653a2063616c6c6572206973206e6f7420746865206f776e657281525060200191505060405180910390fd5b600073ffffffffffffffffffffffffffffffffffffffff168173ffffffffffffffffffffffffffffffffffffffff161415611751576040517f08c379a0000000000000000000000000000000000000000000000000000000008152600401808060200182810382526026815260200180611a726026913960400191505060405180910390fd5b8073ffffffffffffffffffffffffffffffffffffffff166000809054906101000a900473ffffffffffffffffffffffffffffffffffffffff1673ffffffffffffffffffffffffffffffffffffffff167f8be0079c531659141344cd1fd0a4f28419497f9722a3daafe3b4186f6b6457e060405160405180910390a3806000806101000a81548173ffffffffffffffffffffffffffffffffffffffff021916908373ffffffffffffffffffffffffffffffffffffffff16021790555050565b61181761195b565b73ffffffffffffffffffffffffffffffffffffffff166000809054906101000a900473ffffffffffffffffffffffffffffffffffffffff1673ffffffffffffffffffffffffffffffffffffffff16146118d8576040517f08c379a00000000000000000000000000000000000000000000000000000000081526004018080602001828103825260208152602001807f4f776e61626c653a2063616c6c6572206973206e6f7420746865206f776e657281525060200191505060405180910390fd5b600360058111156118e557fe5b600460009054906101000a900460ff16600581111561190057fe5b1461190a57600080fd5b60048060006101000a81548160ff0219169083600581111561192857fe5b02179055507fc379d349a6301baf50fb2f98d829f4ae10b1cdb7c66f4e4d8117302df7b8cd4c60405160405180910390a1565b600033905090565b6040518060600160405280600015158152602001600015158152602001600081525090565b604051806040016040528060608152602001600081525090565b828054600181600116156101000203166002900490600052602060002090601f016020900481019282601f106119e357805160ff1916838001178555611a11565b82800160010185558215611a11579182015b82811115611a105782518255916020019190600101906119f5565b5b509050611a1e9190611a22565b5090565b611a4491905b80821115611a40576000816000905550600101611a28565b5090565b9056fe596f752073686f756c642062652072656769737472656420746f207361766520612070726f706f73616c4f776e61626c653a206e6577206f776e657220697320746865207a65726f2061646472657373526567697374726174696f6e2073657373696f6e20686173206e6f74207374617274656420796574a2646970667358221220d9dc7f70b7e55aa180e6ae7dc0eab4c465b8aefbbbded69f713d065df5cfed1964736f6c634300060b0033",
  "immutableReferences": {},
  "source": "pragma solidity 0.6.11;\r\n\r\nimport \"@openzeppelin/contracts/access/Ownable.sol\";\r\n\r\ncontract Vote is Ownable {\r\n      \r\n    mapping(address => Voter) public whiteList;\r\n    \r\n    Proposal[] public proposals;\r\n    \r\n    uint winningProposalId;\r\n    \r\n    enum WorkflowStatus {\r\n        RegisteringVoters,\r\n        ProposalsRegistrationStarted,\r\n        ProposalsRegistrationEnded,\r\n        VotingSessionStarted,\r\n        VotingSessionEnded,\r\n        VotesTallied\r\n    }\r\n    \r\n    WorkflowStatus public status;\r\n    \r\n    WorkflowStatus previousStatus;\r\n    \r\n    struct Voter {\r\n        bool isRegistered;\r\n        bool hasVoted;\r\n        uint votedProposalId;\r\n    }\r\n    \r\n    struct Proposal {\r\n        string description;\r\n        uint voteCount;\r\n    }\r\n    \r\n    event VoterRegistered(address voterAddress);\r\n    event ProposalsRegistrationStarted();\r\n    event ProposalsRegistrationEnded();\r\n    event ProposalRegistered(uint proposalId);\r\n    event VotingSessionStarted();\r\n    event VotingSessionEnded();\r\n    event Voted (address voter, uint proposalId);\r\n    event VotesTallied();\r\n    event WorkflowStatusChange(WorkflowStatus previousStatus, WorkflowStatus\r\n    newStatus);\r\n\r\nfunction registration(address _address) external onlyOwner {\r\n    require(whiteList[_address].isRegistered == false, \"Already registred\");\r\n    Voter memory newVoter = Voter(true, false, 0);\r\n    whiteList[_address] = newVoter;\r\n    status = WorkflowStatus.RegisteringVoters;\r\n    \r\n    emit VoterRegistered(_address);\r\n}\r\n\r\nfunction openProposalRegistration() external onlyOwner  {\r\n    require(status == WorkflowStatus.RegisteringVoters);\r\n    status = WorkflowStatus.ProposalsRegistrationStarted;\r\n    \r\n    emit ProposalsRegistrationStarted();\r\n    emit WorkflowStatusChange(previousStatus, status);\r\n    \r\n    previousStatus = WorkflowStatus.ProposalsRegistrationStarted;\r\n}\r\n\r\nfunction saveProposal(string memory _proposalDescription) external {\r\n    require(status == WorkflowStatus.ProposalsRegistrationStarted, \"Registration session has not started yet\");\r\n    require(status != WorkflowStatus.ProposalsRegistrationEnded);\r\n    require(whiteList[msg.sender].isRegistered == true, \"You should be registred to save a proposal\");\r\n    require(whiteList[msg.sender].hasVoted = false, \"You have already voted\");\r\n    Proposal memory proposal = Proposal(_proposalDescription, 0);\r\n    proposals.push(proposal);\r\n    status = WorkflowStatus.ProposalsRegistrationStarted;\r\n    \r\n    emit ProposalRegistered(proposals.length);\r\n    emit WorkflowStatusChange(previousStatus, status);\r\n    \r\n    previousStatus = WorkflowStatus.ProposalsRegistrationStarted;\r\n    \r\n}\r\n\r\nfunction closeProposalRegistration() external onlyOwner {\r\n    require(status == WorkflowStatus.ProposalsRegistrationStarted);\r\n    status = WorkflowStatus.ProposalsRegistrationEnded;\r\n    \r\n    emit ProposalsRegistrationEnded();\r\n    emit WorkflowStatusChange(previousStatus, status);\r\n    \r\n    previousStatus = WorkflowStatus.ProposalsRegistrationEnded;\r\n}\r\n\r\nfunction openVoteSession() external onlyOwner {\r\n    require(status == WorkflowStatus.ProposalsRegistrationEnded);\r\n    status = WorkflowStatus.VotingSessionStarted;\r\n    \r\n    emit VotingSessionStarted();\r\n    emit WorkflowStatusChange(previousStatus, status);\r\n    \r\n    previousStatus = WorkflowStatus.VotingSessionStarted;\r\n}\r\nfunction vote(uint _proposalId) external {\r\n    require(status == WorkflowStatus.VotingSessionStarted);\r\n    require(whiteList[msg.sender].hasVoted == false);\r\n    \r\n    proposals[_proposalId].voteCount++;\r\n    emit Voted (msg.sender,_proposalId);\r\n    whiteList[msg.sender].hasVoted = true;\r\n    \r\n}\r\n\r\nfunction endVoteSession() external onlyOwner {\r\n    require(status == WorkflowStatus.VotingSessionStarted);\r\n    status = WorkflowStatus.VotingSessionEnded;\r\n    \r\n    emit VotingSessionEnded();\r\n}\r\n\r\nfunction countVotes() external onlyOwner returns (uint)  {\r\n    require(status == WorkflowStatus.VotingSessionEnded);\r\n    emit VotesTallied();\r\n    \r\n    return proposals.length;\r\n}\r\n    \r\n}",
  "sourcePath": "D:/Programming/Blockchain/Web3/Vote/contracts/Vote.sol",
  "compiler": {
    "name": "solc",
    "version": "0.6.11+commit.5ef660b1.Emscripten.clang"
  },
  "schemaVersion": "3.3.2",
  "updatedAt": "2020-11-23T10:06:25.066Z",
  "networkType": "ethereum",
  "devdoc": {
    "kind": "dev",
    "methods": {
      "owner()": {
        "details": "Returns the address of the current owner."
      },
      "renounceOwnership()": {
        "details": "Leaves the contract without owner. It will not be possible to call `onlyOwner` functions anymore. Can only be called by the current owner. NOTE: Renouncing ownership will leave the contract without an owner, thereby removing any functionality that is only available to the owner."
      },
      "transferOwnership(address)": {
        "details": "Transfers ownership of the contract to a new account (`newOwner`). Can only be called by the current owner."
      }
    },
    "version": 1
  },
  "userdoc": {
    "kind": "user",
    "methods": {},
    "version": 1
  }
}