{
  "contractName": "Vote",
  "abi": [
    {
      "inputs": [],
      "stateMutability": "nonpayable",
      "type": "constructor"
    },
    {
      "anonymous": false,
      "inputs": [
        {
          "indexed": true,
          "internalType": "address",
          "name": "previousOwner",
          "type": "address"
        },
        {
          "indexed": true,
          "internalType": "address",
          "name": "newOwner",
          "type": "address"
        }
      ],
      "name": "OwnershipTransferred",
      "type": "event"
    },
    {
      "anonymous": false,
      "inputs": [
        {
          "indexed": false,
          "internalType": "uint256",
          "name": "proposalId",
          "type": "uint256"
        }
      ],
      "name": "ProposalRegistered",
      "type": "event"
    },
    {
      "anonymous": false,
      "inputs": [],
      "name": "ProposalsRegistrationEnded",
      "type": "event"
    },
    {
      "anonymous": false,
      "inputs": [],
      "name": "ProposalsRegistrationStarted",
      "type": "event"
    },
    {
      "anonymous": false,
      "inputs": [
        {
          "indexed": false,
          "internalType": "address",
          "name": "voter",
          "type": "address"
        },
        {
          "indexed": false,
          "internalType": "uint256",
          "name": "proposalId",
          "type": "uint256"
        }
      ],
      "name": "Voted",
      "type": "event"
    },
    {
      "anonymous": false,
      "inputs": [
        {
          "indexed": false,
          "internalType": "address",
          "name": "voterAddress",
          "type": "address"
        }
      ],
      "name": "VoterRegistered",
      "type": "event"
    },
    {
      "anonymous": false,
      "inputs": [],
      "name": "VotesTallied",
      "type": "event"
    },
    {
      "anonymous": false,
      "inputs": [],
      "name": "VotingSessionEnded",
      "type": "event"
    },
    {
      "anonymous": false,
      "inputs": [],
      "name": "VotingSessionStarted",
      "type": "event"
    },
    {
      "anonymous": false,
      "inputs": [
        {
          "indexed": false,
          "internalType": "enum Vote.WorkflowStatus",
          "name": "previousStatus",
          "type": "uint8"
        },
        {
          "indexed": false,
          "internalType": "enum Vote.WorkflowStatus",
          "name": "newStatus",
          "type": "uint8"
        }
      ],
      "name": "WorkflowStatusChange",
      "type": "event"
    },
    {
      "inputs": [],
      "name": "owner",
      "outputs": [
        {
          "internalType": "address",
          "name": "",
          "type": "address"
        }
      ],
      "stateMutability": "view",
      "type": "function",
      "constant": true
    },
    {
      "inputs": [
        {
          "internalType": "uint256",
          "name": "",
          "type": "uint256"
        }
      ],
      "name": "proposals",
      "outputs": [
        {
          "internalType": "string",
          "name": "description",
          "type": "string"
        },
        {
          "internalType": "uint256",
          "name": "voteCount",
          "type": "uint256"
        }
      ],
      "stateMutability": "view",
      "type": "function",
      "constant": true
    },
    {
      "inputs": [],
      "name": "renounceOwnership",
      "outputs": [],
      "stateMutability": "nonpayable",
      "type": "function"
    },
    {
      "inputs": [],
      "name": "status",
      "outputs": [
        {
          "internalType": "enum Vote.WorkflowStatus",
          "name": "",
          "type": "uint8"
        }
      ],
      "stateMutability": "view",
      "type": "function",
      "constant": true
    },
    {
      "inputs": [
        {
          "internalType": "address",
          "name": "newOwner",
          "type": "address"
        }
      ],
      "name": "transferOwnership",
      "outputs": [],
      "stateMutability": "nonpayable",
      "type": "function"
    },
    {
      "inputs": [
        {
          "internalType": "address",
          "name": "",
          "type": "address"
        }
      ],
      "name": "whiteList",
      "outputs": [
        {
          "internalType": "bool",
          "name": "isRegistered",
          "type": "bool"
        },
        {
          "internalType": "bool",
          "name": "hasVoted",
          "type": "bool"
        },
        {
          "internalType": "uint256",
          "name": "votedProposalId",
          "type": "uint256"
        }
      ],
      "stateMutability": "view",
      "type": "function",
      "constant": true
    },
    {
      "inputs": [
        {
          "internalType": "address",
          "name": "_address",
          "type": "address"
        }
      ],
      "name": "registration",
      "outputs": [],
      "stateMutability": "nonpayable",
      "type": "function"
    },
    {
      "inputs": [
        {
          "internalType": "address",
          "name": "_address",
          "type": "address"
        }
      ],
      "name": "isVoter",
      "outputs": [
        {
          "internalType": "bool",
          "name": "",
          "type": "bool"
        }
      ],
      "stateMutability": "view",
      "type": "function",
      "constant": true
    },
    {
      "inputs": [],
      "name": "openProposalRegistration",
      "outputs": [],
      "stateMutability": "nonpayable",
      "type": "function"
    },
    {
      "inputs": [
        {
          "internalType": "string",
          "name": "_proposalDescription",
          "type": "string"
        }
      ],
      "name": "saveProposal",
      "outputs": [],
      "stateMutability": "nonpayable",
      "type": "function"
    },
    {
      "inputs": [],
      "name": "closeProposalRegistration",
      "outputs": [],
      "stateMutability": "nonpayable",
      "type": "function"
    },
    {
      "inputs": [],
      "name": "openVoteSession",
      "outputs": [],
      "stateMutability": "nonpayable",
      "type": "function"
    },
    {
      "inputs": [
        {
          "internalType": "uint8",
          "name": "_proposalId",
          "type": "uint8"
        }
      ],
      "name": "addVote",
      "outputs": [],
      "stateMutability": "nonpayable",
      "type": "function"
    },
    {
      "inputs": [],
      "name": "endVoteSession",
      "outputs": [],
      "stateMutability": "nonpayable",
      "type": "function"
    },
    {
      "inputs": [],
      "name": "getWinningPorposal",
      "outputs": [
        {
          "internalType": "uint256",
          "name": "",
          "type": "uint256"
        }
      ],
      "stateMutability": "nonpayable",
      "type": "function"
    }
  ],
  "bytecode": "0x608060405234801561001057600080fd5b5060006100216100e760201b60201c565b9050806000806101000a81548173ffffffffffffffffffffffffffffffffffffffff021916908373ffffffffffffffffffffffffffffffffffffffff1602179055508073ffffffffffffffffffffffffffffffffffffffff16600073ffffffffffffffffffffffffffffffffffffffff167f8be0079c531659141344cd1fd0a4f28419497f9722a3daafe3b4186f6b6457e060405160405180910390a35060008060146101000a81548160ff021916908360058111156100dd57fe5b02179055506100ef565b600033905090565b611f4c806100fe6000396000f3fe608060405234801561001057600080fd5b50600436106100f55760003560e01c8063715018a611610097578063ab014bda11610066578063ab014bda1461044a578063b2c6348714610454578063f2fde38b1461045e578063f74c168d146104a2576100f5565b8063715018a6146102df5780637aefac7b146102e95780638da5cb5b146103a4578063a7771ee3146103ee576100f5565b8063200d2ed2116100d3578063200d2ed2146101f6578063372c12b1146102225780635d814eab14610290578063661a006a146102c1576100f5565b8063013cf08b146100fa57806307fa315f146101a85780630840605a146101b2575b600080fd5b6101266004803603602081101561011057600080fd5b81019080803590602001909291905050506104ac565b6040518080602001838152602001828103825284818151815260200191508051906020019080838360005b8381101561016c578082015181840152602081019050610151565b50505050905090810190601f1680156101995780820380516001836020036101000a031916815260200191505b50935050505060405180910390f35b6101b0610575565b005b6101f4600480360360208110156101c857600080fd5b81019080803573ffffffffffffffffffffffffffffffffffffffff1690602001909291905050506107c8565b005b6101fe610b15565b6040518082600581111561020e57fe5b60ff16815260200191505060405180910390f35b6102646004803603602081101561023857600080fd5b81019080803573ffffffffffffffffffffffffffffffffffffffff169060200190929190505050610b28565b604051808415151515815260200183151515158152602001828152602001935050505060405180910390f35b6102bf600480360360208110156102a657600080fd5b81019080803560ff169060200190929190505050610b6c565b005b6102c9610daf565b6040518082815260200191505060405180910390f35b6102e7610fb7565b005b6103a2600480360360208110156102ff57600080fd5b810190808035906020019064010000000081111561031c57600080fd5b82018360208201111561032e57600080fd5b8035906020019184600183028401116401000000008311171561035057600080fd5b91908080601f016020809104026020016040519081016040528093929190818152602001838380828437600081840152601f19601f82011690508083019250505050505050919291929050505061113f565b005b6103ac6113df565b604051808273ffffffffffffffffffffffffffffffffffffffff1673ffffffffffffffffffffffffffffffffffffffff16815260200191505060405180910390f35b6104306004803603602081101561040457600080fd5b81019080803573ffffffffffffffffffffffffffffffffffffffff169060200190929190505050611408565b604051808215151515815260200191505060405180910390f35b61045261152a565b005b61045c611760565b005b6104a06004803603602081101561047457600080fd5b81019080803573ffffffffffffffffffffffffffffffffffffffff1690602001909291905050506119b3565b005b6104aa611bc0565b005b600281815481106104b957fe5b9060005260206000209060020201600091509050806000018054600181600116156101000203166002900480601f0160208091040260200160405190810160405280929190818152602001828054600181600116156101000203166002900480156105655780601f1061053a57610100808354040283529160200191610565565b820191906000526020600020905b81548152906001019060200180831161054857829003601f168201915b5050505050908060010154905082565b61057d611d76565b73ffffffffffffffffffffffffffffffffffffffff166000809054906101000a900473ffffffffffffffffffffffffffffffffffffffff1673ffffffffffffffffffffffffffffffffffffffff161461063e576040517f08c379a00000000000000000000000000000000000000000000000000000000081526004018080602001828103825260208152602001807f4f776e61626c653a2063616c6c6572206973206e6f7420746865206f776e657281525060200191505060405180910390fd5b6001600581111561064b57fe5b600060149054906101000a900460ff16600581111561066657fe5b146106d9576040517f08c379a00000000000000000000000000000000000000000000000000000000081526004018080602001828103825260118152602001807f4e6f2073657373696f6e20746f20656e6400000000000000000000000000000081525060200191505060405180910390fd5b6002600060146101000a81548160ff021916908360058111156106f857fe5b02179055506002600460006101000a81548160ff0219169083600581111561071c57fe5b02179055507f240cb87b2e4df4c318e72bd714d45a9cad60249e883ff56b1fffd83a4595a8fa60405160405180910390a17f0a97a4ee45751e2abf3e4fc8946939630b11b371ea8ae39ccdc3056e98f5cc3f600460009054906101000a900460ff16600060149054906101000a900460ff166040518083600581111561079e57fe5b60ff1681526020018260058111156107b257fe5b60ff1681526020019250505060405180910390a1565b6107d0611d76565b73ffffffffffffffffffffffffffffffffffffffff166000809054906101000a900473ffffffffffffffffffffffffffffffffffffffff1673ffffffffffffffffffffffffffffffffffffffff1614610891576040517f08c379a00000000000000000000000000000000000000000000000000000000081526004018080602001828103825260208152602001807f4f776e61626c653a2063616c6c6572206973206e6f7420746865206f776e657281525060200191505060405180910390fd5b6000600581111561089e57fe5b600060149054906101000a900460ff1660058111156108b957fe5b1461092c576040517f08c379a00000000000000000000000000000000000000000000000000000000081526004018080602001828103825260178152602001807f5265676973746572696e6720706572696f64206f76657200000000000000000081525060200191505060405180910390fd5b60001515600160008373ffffffffffffffffffffffffffffffffffffffff1673ffffffffffffffffffffffffffffffffffffffff16815260200190815260200160002060000160009054906101000a900460ff161515146109f5576040517f08c379a00000000000000000000000000000000000000000000000000000000081526004018080602001828103825260118152602001807f416c72656164792072656769737472656400000000000000000000000000000081525060200191505060405180910390fd5b6109fd611d7e565b60405180606001604052806001151581526020016000151581526020016000815250905080600160008473ffffffffffffffffffffffffffffffffffffffff1673ffffffffffffffffffffffffffffffffffffffff16815260200190815260200160002060008201518160000160006101000a81548160ff02191690831515021790555060208201518160000160016101000a81548160ff021916908315150217905550604082015181600101559050507fb6be2187d059cc2a55fe29e0e503b566e1e0f8c8780096e185429350acffd3dd82604051808273ffffffffffffffffffffffffffffffffffffffff1673ffffffffffffffffffffffffffffffffffffffff16815260200191505060405180910390a15050565b600060149054906101000a900460ff1681565b60016020528060005260406000206000915090508060000160009054906101000a900460ff16908060000160019054906101000a900460ff16908060010154905083565b60036005811115610b7957fe5b600060149054906101000a900460ff166005811115610b9457fe5b14610bea576040517f08c379a0000000000000000000000000000000000000000000000000000000008152600401808060200182810382526031815260200180611ee66031913960400191505060405180910390fd5b60001515600160003373ffffffffffffffffffffffffffffffffffffffff1673ffffffffffffffffffffffffffffffffffffffff16815260200190815260200160002060000160019054906101000a900460ff16151514610cb3576040517f08c379a00000000000000000000000000000000000000000000000000000000081526004018080602001828103825260168152602001807f596f75206861766520616c726561647920766f7465640000000000000000000081525060200191505060405180910390fd5b60018060003373ffffffffffffffffffffffffffffffffffffffff1673ffffffffffffffffffffffffffffffffffffffff16815260200190815260200160002060000160016101000a81548160ff02191690831515021790555060028160ff1681548110610d1d57fe5b9060005260206000209060020201600101600081548092919060010191905055507f4d99b957a2bc29a30ebd96a7be8e68fe50a3c701db28a91436490b7d53870ca43382604051808373ffffffffffffffffffffffffffffffffffffffff1673ffffffffffffffffffffffffffffffffffffffff1681526020018260ff1681526020019250505060405180910390a150565b6000610db9611d76565b73ffffffffffffffffffffffffffffffffffffffff166000809054906101000a900473ffffffffffffffffffffffffffffffffffffffff1673ffffffffffffffffffffffffffffffffffffffff1614610e7a576040517f08c379a00000000000000000000000000000000000000000000000000000000081526004018080602001828103825260208152602001807f4f776e61626c653a2063616c6c6572206973206e6f7420746865206f776e657281525060200191505060405180910390fd5b60046005811115610e8757fe5b600060149054906101000a900460ff166005811115610ea257fe5b14610f15576040517f08c379a000000000000000000000000000000000000000000000000000000000815260040180806020018281038252601d8152602001807f566f74696e672073657373696f6e206e6f7420636c6f7365742079657400000081525060200191505060405180910390fd5b600080600090505b600280549050811015610f86578160028281548110610f3857fe5b9060005260206000209060020201600101541115610f795760028181548110610f5d57fe5b9060005260206000209060020201600101549150806003819055505b8080600101915050610f1d565b507f0e5e95ff8725ab3e7a4b6b59998a4c344c2aa8d1485f5e60cb7f337768e6134760405160405180910390a15090565b610fbf611d76565b73ffffffffffffffffffffffffffffffffffffffff166000809054906101000a900473ffffffffffffffffffffffffffffffffffffffff1673ffffffffffffffffffffffffffffffffffffffff1614611080576040517f08c379a00000000000000000000000000000000000000000000000000000000081526004018080602001828103825260208152602001807f4f776e61626c653a2063616c6c6572206973206e6f7420746865206f776e657281525060200191505060405180910390fd5b600073ffffffffffffffffffffffffffffffffffffffff166000809054906101000a900473ffffffffffffffffffffffffffffffffffffffff1673ffffffffffffffffffffffffffffffffffffffff167f8be0079c531659141344cd1fd0a4f28419497f9722a3daafe3b4186f6b6457e060405160405180910390a360008060006101000a81548173ffffffffffffffffffffffffffffffffffffffff021916908373ffffffffffffffffffffffffffffffffffffffff160217905550565b6001600581111561114c57fe5b600060149054906101000a900460ff16600581111561116757fe5b146111bd576040517f08c379a0000000000000000000000000000000000000000000000000000000008152600401808060200182810382526031815260200180611ee66031913960400191505060405180910390fd5b60011515600160003373ffffffffffffffffffffffffffffffffffffffff1673ffffffffffffffffffffffffffffffffffffffff16815260200190815260200160002060000160009054906101000a900460ff16151514611269576040517f08c379a000000000000000000000000000000000000000000000000000000000815260040180806020018281038252602a815260200180611e63602a913960400191505060405180910390fd5b611271611da3565b604051806040016040528083815260200160008152509050600281908060018154018082558091505060019003906000526020600020906002020160009091909190915060008201518160000190805190602001906112d1929190611dbd565b506020820151816001015550506001600060146101000a81548160ff021916908360058111156112fd57fe5b02179055506001600460006101000a81548160ff0219169083600581111561132157fe5b02179055507f92e393e9b54e2f801d3ea4beb0c5e71a21cc34a5d34b77d0fb8a3aa1650dc18f6002805490506040518082815260200191505060405180910390a17f0a97a4ee45751e2abf3e4fc8946939630b11b371ea8ae39ccdc3056e98f5cc3f600460009054906101000a900460ff16600060149054906101000a900460ff16604051808360058111156113b357fe5b60ff1681526020018260058111156113c757fe5b60ff1681526020019250505060405180910390a15050565b60008060009054906101000a900473ffffffffffffffffffffffffffffffffffffffff16905090565b6000611412611d76565b73ffffffffffffffffffffffffffffffffffffffff166000809054906101000a900473ffffffffffffffffffffffffffffffffffffffff1673ffffffffffffffffffffffffffffffffffffffff16146114d3576040517f08c379a00000000000000000000000000000000000000000000000000000000081526004018080602001828103825260208152602001807f4f776e61626c653a2063616c6c6572206973206e6f7420746865206f776e657281525060200191505060405180910390fd5b600160008373ffffffffffffffffffffffffffffffffffffffff1673ffffffffffffffffffffffffffffffffffffffff16815260200190815260200160002060000160009054906101000a900460ff169050919050565b611532611d76565b73ffffffffffffffffffffffffffffffffffffffff166000809054906101000a900473ffffffffffffffffffffffffffffffffffffffff1673ffffffffffffffffffffffffffffffffffffffff16146115f3576040517f08c379a00000000000000000000000000000000000000000000000000000000081526004018080602001828103825260208152602001807f4f776e61626c653a2063616c6c6572206973206e6f7420746865206f776e657281525060200191505060405180910390fd5b6002600581111561160057fe5b600060149054906101000a900460ff16600581111561161b57fe5b14611671576040517f08c379a0000000000000000000000000000000000000000000000000000000008152600401808060200182810382526033815260200180611eb36033913960400191505060405180910390fd5b6003600060146101000a81548160ff0219169083600581111561169057fe5b02179055506003600460006101000a81548160ff021916908360058111156116b457fe5b02179055507f1b8e19a458c1bcd88553332c518cc5c4e2d5793e712ee766d4f1c14f672ef1f560405160405180910390a17f0a97a4ee45751e2abf3e4fc8946939630b11b371ea8ae39ccdc3056e98f5cc3f600460009054906101000a900460ff16600060149054906101000a900460ff166040518083600581111561173657fe5b60ff16815260200182600581111561174a57fe5b60ff1681526020019250505060405180910390a1565b611768611d76565b73ffffffffffffffffffffffffffffffffffffffff166000809054906101000a900473ffffffffffffffffffffffffffffffffffffffff1673ffffffffffffffffffffffffffffffffffffffff1614611829576040517f08c379a00000000000000000000000000000000000000000000000000000000081526004018080602001828103825260208152602001807f4f776e61626c653a2063616c6c6572206973206e6f7420746865206f776e657281525060200191505060405180910390fd5b6000600581111561183657fe5b600060149054906101000a900460ff16600581111561185157fe5b146118c4576040517f08c379a00000000000000000000000000000000000000000000000000000000081526004018080602001828103825260208152602001807f412073657373696f6e20697320616c726561647920696e2070726f677265737381525060200191505060405180910390fd5b6001600060146101000a81548160ff021916908360058111156118e357fe5b02179055506001600460006101000a81548160ff0219169083600581111561190757fe5b02179055507f344c25562921d075a298d34b6dd1fd00d36ff293974539dfd4a8c625d9f0064c60405160405180910390a17f0a97a4ee45751e2abf3e4fc8946939630b11b371ea8ae39ccdc3056e98f5cc3f600460009054906101000a900460ff16600060149054906101000a900460ff166040518083600581111561198957fe5b60ff16815260200182600581111561199d57fe5b60ff1681526020019250505060405180910390a1565b6119bb611d76565b73ffffffffffffffffffffffffffffffffffffffff166000809054906101000a900473ffffffffffffffffffffffffffffffffffffffff1673ffffffffffffffffffffffffffffffffffffffff1614611a7c576040517f08c379a00000000000000000000000000000000000000000000000000000000081526004018080602001828103825260208152602001807f4f776e61626c653a2063616c6c6572206973206e6f7420746865206f776e657281525060200191505060405180910390fd5b600073ffffffffffffffffffffffffffffffffffffffff168173ffffffffffffffffffffffffffffffffffffffff161415611b02576040517f08c379a0000000000000000000000000000000000000000000000000000000008152600401808060200182810382526026815260200180611e8d6026913960400191505060405180910390fd5b8073ffffffffffffffffffffffffffffffffffffffff166000809054906101000a900473ffffffffffffffffffffffffffffffffffffffff1673ffffffffffffffffffffffffffffffffffffffff167f8be0079c531659141344cd1fd0a4f28419497f9722a3daafe3b4186f6b6457e060405160405180910390a3806000806101000a81548173ffffffffffffffffffffffffffffffffffffffff021916908373ffffffffffffffffffffffffffffffffffffffff16021790555050565b611bc8611d76565b73ffffffffffffffffffffffffffffffffffffffff166000809054906101000a900473ffffffffffffffffffffffffffffffffffffffff1673ffffffffffffffffffffffffffffffffffffffff1614611c89576040517f08c379a00000000000000000000000000000000000000000000000000000000081526004018080602001828103825260208152602001807f4f776e61626c653a2063616c6c6572206973206e6f7420746865206f776e657281525060200191505060405180910390fd5b60036005811115611c9657fe5b600060149054906101000a900460ff166005811115611cb157fe5b14611d24576040517f08c379a00000000000000000000000000000000000000000000000000000000081526004018080602001828103825260118152602001807f4e6f2073657373696f6e20746f20656e6400000000000000000000000000000081525060200191505060405180910390fd5b6004600060146101000a81548160ff02191690836005811115611d4357fe5b02179055507fc379d349a6301baf50fb2f98d829f4ae10b1cdb7c66f4e4d8117302df7b8cd4c60405160405180910390a1565b600033905090565b6040518060600160405280600015158152602001600015158152602001600081525090565b604051806040016040528060608152602001600081525090565b828054600181600116156101000203166002900490600052602060002090601f016020900481019282601f10611dfe57805160ff1916838001178555611e2c565b82800160010185558215611e2c579182015b82811115611e2b578251825591602001919060010190611e10565b5b509050611e399190611e3d565b5090565b611e5f91905b80821115611e5b576000816000905550600101611e43565b5090565b9056fe596f752073686f756c642062652072656769737472656420746f207361766520612070726f706f73616c4f776e61626c653a206e6577206f776e657220697320746865207a65726f20616464726573734120766f74696e67206f722070726f706f73616c2073657373696f6e20697320616c726561647920696e2070726f6772657373526567697374726174696f6e2073657373696f6e2068617320656e646564206f72206e6f74207374617274656420796574a2646970667358221220372583f23006b67399e515d21076f9e11130f7faaeebbc73663e9b5825da4f5a64736f6c634300060b0033",
  "immutableReferences": {},
  "source": "// SPDX-License-Identifier: MIT\r\npragma solidity 0.6.11;\r\n\r\nimport \"@openzeppelin/contracts/access/Ownable.sol\";\r\n\r\ncontract Vote is Ownable {\r\n\r\n    enum WorkflowStatus {\r\n        RegisteringVoters,\r\n        ProposalsRegistrationStarted,\r\n        ProposalsRegistrationEnded,\r\n        VotingSessionStarted,\r\n        VotingSessionEnded,\r\n        VotesTallied\r\n    }\r\n\r\n    struct Voter {\r\n        bool isRegistered;\r\n        bool hasVoted;\r\n        uint votedProposalId;\r\n    }\r\n    \r\n    struct Proposal {\r\n        string description;\r\n        uint voteCount;\r\n    }\r\n\r\n    WorkflowStatus public status;\r\n      \r\n    mapping(address => Voter) public whiteList;\r\n    \r\n    Proposal[] public proposals;\r\n    \r\n    uint winningProposalId;      \r\n    \r\n    WorkflowStatus previousStatus;    \r\n    \r\n    event VoterRegistered(address voterAddress);\r\n    event ProposalsRegistrationStarted();\r\n    event ProposalsRegistrationEnded();\r\n    event ProposalRegistered(uint proposalId);\r\n    event VotingSessionStarted();\r\n    event VotingSessionEnded();\r\n    event Voted (address voter, uint proposalId);\r\n    event VotesTallied();\r\n    event WorkflowStatusChange(WorkflowStatus previousStatus, WorkflowStatus\r\n    newStatus);\r\n\r\n    constructor() public {\r\n        status = WorkflowStatus.RegisteringVoters;\r\n    }\r\n\r\n    function registration(address _address) external onlyOwner {\r\n        require(status == WorkflowStatus.RegisteringVoters, \"Registering period over\");\r\n        require(whiteList[_address].isRegistered == false, \"Already registred\");\r\n        Voter memory newVoter = Voter(true, false, 0);\r\n        whiteList[_address] = newVoter;    \r\n        \r\n        emit VoterRegistered(_address);\r\n    }\r\n\r\n    function isVoter(address _address) public view onlyOwner returns(bool) {\r\n            return whiteList[_address].isRegistered;\r\n        }\r\n\r\n    function openProposalRegistration() external onlyOwner  {\r\n        require(status == WorkflowStatus.RegisteringVoters, \"A session is already in progress\");\r\n        status = WorkflowStatus.ProposalsRegistrationStarted;\r\n        previousStatus = WorkflowStatus.ProposalsRegistrationStarted;\r\n        \r\n        emit ProposalsRegistrationStarted();\r\n        emit WorkflowStatusChange(previousStatus, status);        \r\n    }\r\n\r\n    function saveProposal(string memory _proposalDescription) external {\r\n        require(status == WorkflowStatus.ProposalsRegistrationStarted, \"Registration session has ended or not started yet\");\r\n        require(whiteList[msg.sender].isRegistered == true, \"You should be registred to save a proposal\");\r\n        Proposal memory proposal = Proposal(_proposalDescription, 0);\r\n        proposals.push(proposal);\r\n        status = WorkflowStatus.ProposalsRegistrationStarted;\r\n        previousStatus = WorkflowStatus.ProposalsRegistrationStarted;\r\n        \r\n        emit ProposalRegistered(proposals.length);\r\n        emit WorkflowStatusChange(previousStatus, status);    \r\n    }\r\n\r\n    function closeProposalRegistration() external onlyOwner {\r\n        require(status == WorkflowStatus.ProposalsRegistrationStarted, \"No session to end\");\r\n        status = WorkflowStatus.ProposalsRegistrationEnded;\r\n        previousStatus = WorkflowStatus.ProposalsRegistrationEnded;\r\n        \r\n        emit ProposalsRegistrationEnded();\r\n        emit WorkflowStatusChange(previousStatus, status);   \r\n    }\r\n\r\n    function openVoteSession() external onlyOwner {\r\n        require(status == WorkflowStatus.ProposalsRegistrationEnded, \"A voting or proposal session is already in progress\");\r\n        status = WorkflowStatus.VotingSessionStarted;\r\n        previousStatus = WorkflowStatus.VotingSessionStarted;\r\n        \r\n        emit VotingSessionStarted();\r\n        emit WorkflowStatusChange(previousStatus, status);    \r\n    }\r\n\r\n    function addVote(uint8 _proposalId) external {\r\n        require(status == WorkflowStatus.VotingSessionStarted, \"Registration session has ended or not started yet\");\r\n        require(whiteList[msg.sender].hasVoted == false, \"You have already voted\");\r\n        whiteList[msg.sender].hasVoted = true;    \r\n        proposals[_proposalId].voteCount++;\r\n\r\n        emit Voted (msg.sender,_proposalId);    \r\n    }\r\n\r\n    function endVoteSession() external onlyOwner {\r\n        require(status == WorkflowStatus.VotingSessionStarted, \"No session to end\");\r\n        status = WorkflowStatus.VotingSessionEnded;\r\n        \r\n        emit VotingSessionEnded();\r\n    }\r\n\r\n    function getWinningPorposal() external onlyOwner returns (uint) {\r\n        require(status == WorkflowStatus.VotingSessionEnded, \"Voting session not closet yet\");\r\n        uint winningVoteCount;\r\n        for (uint i = 0; i < proposals.length; i++) {\r\n            if (proposals[i].voteCount > winningVoteCount) {\r\n                winningVoteCount = proposals[i].voteCount;\r\n                winningProposalId = i;\r\n            }\r\n        }\r\n\r\n        emit VotesTallied(); \r\n\r\n    }\r\n    \r\n}",
  "sourcePath": "D:/Programming/Blockchain/Web3/Vote/contracts/Vote.sol",
  "compiler": {
    "name": "solc",
    "version": "0.6.11+commit.5ef660b1.Emscripten.clang"
  },
  "schemaVersion": "3.3.2",
  "updatedAt": "2020-12-02T14:54:44.060Z",
  "networkType": "ethereum",
  "devdoc": {
    "kind": "dev",
    "methods": {
      "owner()": {
        "details": "Returns the address of the current owner."
      },
      "renounceOwnership()": {
        "details": "Leaves the contract without owner. It will not be possible to call `onlyOwner` functions anymore. Can only be called by the current owner. NOTE: Renouncing ownership will leave the contract without an owner, thereby removing any functionality that is only available to the owner."
      },
      "transferOwnership(address)": {
        "details": "Transfers ownership of the contract to a new account (`newOwner`). Can only be called by the current owner."
      }
    },
    "version": 1
  },
  "userdoc": {
    "kind": "user",
    "methods": {},
    "version": 1
  }
}